{
  "_format": "hh-sol-artifact-1",
  "contractName": "TokenSale",
  "sourceName": "contracts/TokenSale.sol",
  "abi": [
    {
      "inputs": [
        {
          "internalType": "uint256",
          "name": "initialSupply",
          "type": "uint256"
        }
      ],
      "stateMutability": "nonpayable",
      "type": "constructor"
    },
    {
      "anonymous": false,
      "inputs": [
        {
          "indexed": true,
          "internalType": "address",
          "name": "owner",
          "type": "address"
        },
        {
          "indexed": true,
          "internalType": "address",
          "name": "spender",
          "type": "address"
        },
        {
          "indexed": false,
          "internalType": "uint256",
          "name": "value",
          "type": "uint256"
        }
      ],
      "name": "Approval",
      "type": "event"
    },
    {
      "anonymous": false,
      "inputs": [
        {
          "indexed": true,
          "internalType": "address",
          "name": "from",
          "type": "address"
        },
        {
          "indexed": true,
          "internalType": "address",
          "name": "to",
          "type": "address"
        },
        {
          "indexed": false,
          "internalType": "uint256",
          "name": "value",
          "type": "uint256"
        }
      ],
      "name": "Transfer",
      "type": "event"
    },
    {
      "inputs": [
        {
          "internalType": "address",
          "name": "",
          "type": "address"
        },
        {
          "internalType": "address",
          "name": "",
          "type": "address"
        }
      ],
      "name": "allowance",
      "outputs": [
        {
          "internalType": "uint256",
          "name": "",
          "type": "uint256"
        }
      ],
      "stateMutability": "view",
      "type": "function"
    },
    {
      "inputs": [
        {
          "internalType": "address",
          "name": "",
          "type": "address"
        }
      ],
      "name": "balanceOf",
      "outputs": [
        {
          "internalType": "uint256",
          "name": "",
          "type": "uint256"
        }
      ],
      "stateMutability": "view",
      "type": "function"
    },
    {
      "inputs": [],
      "name": "getTokenHolder",
      "outputs": [
        {
          "internalType": "address[]",
          "name": "",
          "type": "address[]"
        }
      ],
      "stateMutability": "view",
      "type": "function"
    },
    {
      "inputs": [
        {
          "internalType": "address",
          "name": "_address",
          "type": "address"
        }
      ],
      "name": "getTokenHolderData",
      "outputs": [
        {
          "internalType": "uint256",
          "name": "",
          "type": "uint256"
        },
        {
          "internalType": "address",
          "name": "",
          "type": "address"
        },
        {
          "internalType": "address",
          "name": "",
          "type": "address"
        },
        {
          "internalType": "uint256",
          "name": "",
          "type": "uint256"
        },
        {
          "internalType": "bool",
          "name": "",
          "type": "bool"
        }
      ],
      "stateMutability": "view",
      "type": "function"
    },
    {
      "inputs": [
        {
          "internalType": "uint256",
          "name": "",
          "type": "uint256"
        }
      ],
      "name": "holderToken",
      "outputs": [
        {
          "internalType": "address",
          "name": "",
          "type": "address"
        }
      ],
      "stateMutability": "view",
      "type": "function"
    },
    {
      "inputs": [],
      "name": "name",
      "outputs": [
        {
          "internalType": "string",
          "name": "",
          "type": "string"
        }
      ],
      "stateMutability": "view",
      "type": "function"
    },
    {
      "inputs": [],
      "name": "ownerOfContract",
      "outputs": [
        {
          "internalType": "address",
          "name": "",
          "type": "address"
        }
      ],
      "stateMutability": "view",
      "type": "function"
    },
    {
      "inputs": [],
      "name": "standard",
      "outputs": [
        {
          "internalType": "string",
          "name": "",
          "type": "string"
        }
      ],
      "stateMutability": "view",
      "type": "function"
    },
    {
      "inputs": [],
      "name": "symbol",
      "outputs": [
        {
          "internalType": "string",
          "name": "",
          "type": "string"
        }
      ],
      "stateMutability": "view",
      "type": "function"
    },
    {
      "inputs": [
        {
          "internalType": "address",
          "name": "",
          "type": "address"
        }
      ],
      "name": "tokenHolderInfos",
      "outputs": [
        {
          "internalType": "uint256",
          "name": "tokenId",
          "type": "uint256"
        },
        {
          "internalType": "address",
          "name": "from",
          "type": "address"
        },
        {
          "internalType": "address",
          "name": "to",
          "type": "address"
        },
        {
          "internalType": "uint256",
          "name": "totalToken",
          "type": "uint256"
        },
        {
          "internalType": "bool",
          "name": "tokenHolder",
          "type": "bool"
        }
      ],
      "stateMutability": "view",
      "type": "function"
    },
    {
      "inputs": [],
      "name": "totalSupply",
      "outputs": [
        {
          "internalType": "uint256",
          "name": "",
          "type": "uint256"
        }
      ],
      "stateMutability": "view",
      "type": "function"
    },
    {
      "inputs": [
        {
          "internalType": "address",
          "name": "to",
          "type": "address"
        },
        {
          "internalType": "uint256",
          "name": "value",
          "type": "uint256"
        }
      ],
      "name": "transfer",
      "outputs": [
        {
          "internalType": "bool",
          "name": "success",
          "type": "bool"
        }
      ],
      "stateMutability": "nonpayable",
      "type": "function"
    },
    {
      "inputs": [
        {
          "internalType": "address",
          "name": "from",
          "type": "address"
        },
        {
          "internalType": "address",
          "name": "to",
          "type": "address"
        },
        {
          "internalType": "uint256",
          "name": "value",
          "type": "uint256"
        }
      ],
      "name": "transferFrom",
      "outputs": [
        {
          "internalType": "bool",
          "name": "success",
          "type": "bool"
        }
      ],
      "stateMutability": "nonpayable",
      "type": "function"
    },
    {
      "inputs": [],
      "name": "userId",
      "outputs": [
        {
          "internalType": "uint256",
          "name": "",
          "type": "uint256"
        }
      ],
      "stateMutability": "view",
      "type": "function"
    }
  ],
  "bytecode": "0x60806040526040518060400160405280600a81526020017f546f6b656e2053616c6500000000000000000000000000000000000000000000815250600090816200004a919062000419565b506040518060400160405280600181526020017f54000000000000000000000000000000000000000000000000000000000000008152506001908162000091919062000419565b506040518060400160405280601181526020017f40546f6b656e53616c65202e762e302e3100000000000000000000000000000081525060029081620000d8919062000419565b50348015620000e657600080fd5b50604051620019513803806200195183398181016040528101906200010c919062000536565b33600460006101000a81548173ffffffffffffffffffffffffffffffffffffffff021916908373ffffffffffffffffffffffffffffffffffffffff16021790555080600860003373ffffffffffffffffffffffffffffffffffffffff1673ffffffffffffffffffffffffffffffffffffffff16815260200190815260200160002081905550806003819055505062000568565b600081519050919050565b7f4e487b7100000000000000000000000000000000000000000000000000000000600052604160045260246000fd5b7f4e487b7100000000000000000000000000000000000000000000000000000000600052602260045260246000fd5b600060028204905060018216806200022157607f821691505b602082108103620002375762000236620001d9565b5b50919050565b60008190508160005260206000209050919050565b60006020601f8301049050919050565b600082821b905092915050565b600060088302620002a17fffffffffffffffffffffffffffffffffffffffffffffffffffffffffffffffff8262000262565b620002ad868362000262565b95508019841693508086168417925050509392505050565b6000819050919050565b6000819050919050565b6000620002fa620002f4620002ee84620002c5565b620002cf565b620002c5565b9050919050565b6000819050919050565b6200031683620002d9565b6200032e620003258262000301565b8484546200026f565b825550505050565b600090565b6200034562000336565b620003528184846200030b565b505050565b5b818110156200037a576200036e6000826200033b565b60018101905062000358565b5050565b601f821115620003c95762000393816200023d565b6200039e8462000252565b81016020851015620003ae578190505b620003c6620003bd8562000252565b83018262000357565b50505b505050565b600082821c905092915050565b6000620003ee60001984600802620003ce565b1980831691505092915050565b6000620004098383620003db565b9150826002028217905092915050565b62000424826200019f565b67ffffffffffffffff81111562000440576200043f620001aa565b5b6200044c825462000208565b620004598282856200037e565b600060209050601f8311600181146200049157600084156200047c578287015190505b620004888582620003fb565b865550620004f8565b601f198416620004a1866200023d565b60005b82811015620004cb57848901518255600182019150602085019450602081019050620004a4565b86831015620004eb5784890151620004e7601f891682620003db565b8355505b6001600288020188555050505b505050505050565b600080fd5b6200051081620002c5565b81146200051c57600080fd5b50565b600081519050620005308162000505565b92915050565b6000602082840312156200054f576200054e62000500565b5b60006200055f848285016200051f565b91505092915050565b6113d980620005786000396000f3fe608060405234801561001057600080fd5b50600436106100ea5760003560e01c806370a082311161008c57806395d89b411161006657806395d89b411461027d578063a9059cbb1461029b578063ba8e3557146102cb578063dd62ed3e146102e9576100ea565b806370a08231146101e9578063760b06c51461021957806382b6826314610249576100ea565b806329cc66ed116100c857806329cc66ed1461015b578063468229ae1461018f57806358975919146101ad5780635a3b7e42146101cb576100ea565b806306fdde03146100ef57806318160ddd1461010d57806323b872dd1461012b575b600080fd5b6100f7610319565b6040516101049190610de7565b60405180910390f35b6101156103a7565b6040516101229190610e22565b60405180910390f35b61014560048036038101906101409190610ecc565b6103ad565b6040516101529190610f3a565b60405180910390f35b61017560048036038101906101709190610f55565b61069f565b604051610186959493929190610f91565b60405180910390f35b610197610722565b6040516101a49190610fe4565b60405180910390f35b6101b5610748565b6040516101c29190610e22565b60405180910390f35b6101d361074e565b6040516101e09190610de7565b60405180910390f35b61020360048036038101906101fe9190610f55565b6107dc565b6040516102109190610e22565b60405180910390f35b610233600480360381019061022e9190610fff565b6107f4565b6040516102409190610fe4565b60405180910390f35b610263600480360381019061025e9190610f55565b610833565b604051610274959493929190610f91565b60405180910390f35b6102856108f7565b6040516102929190610de7565b60405180910390f35b6102b560048036038101906102b0919061102c565b610985565b6040516102c29190610f3a565b60405180910390f35b6102d3610c8a565b6040516102e0919061112a565b60405180910390f35b61030360048036038101906102fe919061114c565b610d18565b6040516103109190610e22565b60405180910390f35b60008054610326906111bb565b80601f0160208091040260200160405190810160405280929190818152602001828054610352906111bb565b801561039f5780601f106103745761010080835404028352916020019161039f565b820191906000526020600020905b81548152906001019060200180831161038257829003601f168201915b505050505081565b60035481565b6000600860008573ffffffffffffffffffffffffffffffffffffffff1673ffffffffffffffffffffffffffffffffffffffff16815260200190815260200160002054821115610431576040517f08c379a000000000000000000000000000000000000000000000000000000000815260040161042890611238565b60405180910390fd5b600960008573ffffffffffffffffffffffffffffffffffffffff1673ffffffffffffffffffffffffffffffffffffffff16815260200190815260200160002060003373ffffffffffffffffffffffffffffffffffffffff1673ffffffffffffffffffffffffffffffffffffffff168152602001908152602001600020548211156104f0576040517f08c379a00000000000000000000000000000000000000000000000000000000081526004016104e7906112a4565b60405180910390fd5b81600860008673ffffffffffffffffffffffffffffffffffffffff1673ffffffffffffffffffffffffffffffffffffffff168152602001908152602001600020600082825461053f91906112f3565b9250508190555081600860008573ffffffffffffffffffffffffffffffffffffffff1673ffffffffffffffffffffffffffffffffffffffff16815260200190815260200160002060008282546105959190611327565b9250508190555081600960008673ffffffffffffffffffffffffffffffffffffffff1673ffffffffffffffffffffffffffffffffffffffff16815260200190815260200160002060003373ffffffffffffffffffffffffffffffffffffffff1673ffffffffffffffffffffffffffffffffffffffff168152602001908152602001600020600082825461062891906112f3565b925050819055508273ffffffffffffffffffffffffffffffffffffffff168473ffffffffffffffffffffffffffffffffffffffff167fddf252ad1be2c89b69c2b068fc378daa952ba7f163c4a11628f55a4df523b3ef8460405161068c9190610e22565b60405180910390a3600190509392505050565b60076020528060005260406000206000915090508060000154908060010160009054906101000a900473ffffffffffffffffffffffffffffffffffffffff16908060020160009054906101000a900473ffffffffffffffffffffffffffffffffffffffff16908060030154908060040160009054906101000a900460ff16905085565b600460009054906101000a900473ffffffffffffffffffffffffffffffffffffffff1681565b60055481565b6002805461075b906111bb565b80601f0160208091040260200160405190810160405280929190818152602001828054610787906111bb565b80156107d45780601f106107a9576101008083540402835291602001916107d4565b820191906000526020600020905b8154815290600101906020018083116107b757829003601f168201915b505050505081565b60086020528060005260406000206000915090505481565b6006818154811061080457600080fd5b906000526020600020016000915054906101000a900473ffffffffffffffffffffffffffffffffffffffff1681565b600080600080600080600760008873ffffffffffffffffffffffffffffffffffffffff1673ffffffffffffffffffffffffffffffffffffffff168152602001908152602001600020905080600001548160020160009054906101000a900473ffffffffffffffffffffffffffffffffffffffff168260010160009054906101000a900473ffffffffffffffffffffffffffffffffffffffff1683600301548460040160009054906101000a900460ff16955095509550955095505091939590929450565b60018054610904906111bb565b80601f0160208091040260200160405190810160405280929190818152602001828054610930906111bb565b801561097d5780601f106109525761010080835404028352916020019161097d565b820191906000526020600020905b81548152906001019060200180831161096057829003601f168201915b505050505081565b600081600860003373ffffffffffffffffffffffffffffffffffffffff1673ffffffffffffffffffffffffffffffffffffffff168152602001908152602001600020541015610a09576040517f08c379a0000000000000000000000000000000000000000000000000000000008152600401610a0090611238565b60405180910390fd5b610a11610d3d565b81600860003373ffffffffffffffffffffffffffffffffffffffff1673ffffffffffffffffffffffffffffffffffffffff1681526020019081526020016000206000828254610a6091906112f3565b9250508190555081600860008573ffffffffffffffffffffffffffffffffffffffff1673ffffffffffffffffffffffffffffffffffffffff1681526020019081526020016000206000828254610ab69190611327565b925050819055506000600760008573ffffffffffffffffffffffffffffffffffffffff1673ffffffffffffffffffffffffffffffffffffffff16815260200190815260200160002090506005548160000181905550338160010160006101000a81548173ffffffffffffffffffffffffffffffffffffffff021916908373ffffffffffffffffffffffffffffffffffffffff160217905550838160020160006101000a81548173ffffffffffffffffffffffffffffffffffffffff021916908373ffffffffffffffffffffffffffffffffffffffff16021790555082816003018190555060018160040160006101000a81548160ff0219169083151502179055506006849080600181540180825580915050600190039060005260206000200160009091909190916101000a81548173ffffffffffffffffffffffffffffffffffffffff021916908373ffffffffffffffffffffffffffffffffffffffff1602179055508373ffffffffffffffffffffffffffffffffffffffff163373ffffffffffffffffffffffffffffffffffffffff167fddf252ad1be2c89b69c2b068fc378daa952ba7f163c4a11628f55a4df523b3ef85604051610c779190610e22565b60405180910390a3600191505092915050565b60606006805480602002602001604051908101604052809291908181526020018280548015610d0e57602002820191906000526020600020905b8160009054906101000a900473ffffffffffffffffffffffffffffffffffffffff1673ffffffffffffffffffffffffffffffffffffffff1681526020019060010190808311610cc4575b5050505050905090565b6009602052816000526040600020602052806000526040600020600091509150505481565b60056000815480929190610d509061135b565b9190505550565b600081519050919050565b600082825260208201905092915050565b60005b83811015610d91578082015181840152602081019050610d76565b60008484015250505050565b6000601f19601f8301169050919050565b6000610db982610d57565b610dc38185610d62565b9350610dd3818560208601610d73565b610ddc81610d9d565b840191505092915050565b60006020820190508181036000830152610e018184610dae565b905092915050565b6000819050919050565b610e1c81610e09565b82525050565b6000602082019050610e376000830184610e13565b92915050565b600080fd5b600073ffffffffffffffffffffffffffffffffffffffff82169050919050565b6000610e6d82610e42565b9050919050565b610e7d81610e62565b8114610e8857600080fd5b50565b600081359050610e9a81610e74565b92915050565b610ea981610e09565b8114610eb457600080fd5b50565b600081359050610ec681610ea0565b92915050565b600080600060608486031215610ee557610ee4610e3d565b5b6000610ef386828701610e8b565b9350506020610f0486828701610e8b565b9250506040610f1586828701610eb7565b9150509250925092565b60008115159050919050565b610f3481610f1f565b82525050565b6000602082019050610f4f6000830184610f2b565b92915050565b600060208284031215610f6b57610f6a610e3d565b5b6000610f7984828501610e8b565b91505092915050565b610f8b81610e62565b82525050565b600060a082019050610fa66000830188610e13565b610fb36020830187610f82565b610fc06040830186610f82565b610fcd6060830185610e13565b610fda6080830184610f2b565b9695505050505050565b6000602082019050610ff96000830184610f82565b92915050565b60006020828403121561101557611014610e3d565b5b600061102384828501610eb7565b91505092915050565b6000806040838503121561104357611042610e3d565b5b600061105185828601610e8b565b925050602061106285828601610eb7565b9150509250929050565b600081519050919050565b600082825260208201905092915050565b6000819050602082019050919050565b6110a181610e62565b82525050565b60006110b38383611098565b60208301905092915050565b6000602082019050919050565b60006110d78261106c565b6110e18185611077565b93506110ec83611088565b8060005b8381101561111d57815161110488826110a7565b975061110f836110bf565b9250506001810190506110f0565b5085935050505092915050565b6000602082019050818103600083015261114481846110cc565b905092915050565b6000806040838503121561116357611162610e3d565b5b600061117185828601610e8b565b925050602061118285828601610e8b565b9150509250929050565b7f4e487b7100000000000000000000000000000000000000000000000000000000600052602260045260246000fd5b600060028204905060018216806111d357607f821691505b6020821081036111e6576111e561118c565b5b50919050565b7f496e73756666696369656e742062616c616e6365000000000000000000000000600082015250565b6000611222601483610d62565b915061122d826111ec565b602082019050919050565b6000602082019050818103600083015261125181611215565b9050919050565b7f416c6c6f77616e63652065786365656465640000000000000000000000000000600082015250565b600061128e601283610d62565b915061129982611258565b602082019050919050565b600060208201905081810360008301526112bd81611281565b9050919050565b7f4e487b7100000000000000000000000000000000000000000000000000000000600052601160045260246000fd5b60006112fe82610e09565b915061130983610e09565b9250828203905081811115611321576113206112c4565b5b92915050565b600061133282610e09565b915061133d83610e09565b9250828201905080821115611355576113546112c4565b5b92915050565b600061136682610e09565b91507fffffffffffffffffffffffffffffffffffffffffffffffffffffffffffffffff8203611398576113976112c4565b5b60018201905091905056fea26469706673582212205f293925524b1b737fe61cc605471a6c046eb7d18513ee827feea7f8d018c4b564736f6c63430008120033",
  "linkReferences": {},
  "deployedLinkReferences": {}
}