{
  "_format": "hh-sol-artifact-1",
  "contractName": "TokenSaleContract",
  "sourceName": "contracts/TokenSaleContract.sol",
  "abi": [
    {
      "inputs": [
        {
          "internalType": "contract TokenSale",
          "name": "_tokenContract",
          "type": "address"
        },
        {
          "internalType": "uint256",
          "name": "_tokenPrice",
          "type": "uint256"
        }
      ],
      "stateMutability": "nonpayable",
      "type": "constructor"
    },
    {
      "anonymous": false,
      "inputs": [
        {
          "indexed": false,
          "internalType": "address",
          "name": "_buyer",
          "type": "address"
        },
        {
          "indexed": false,
          "internalType": "uint256",
          "name": "_amount",
          "type": "uint256"
        }
      ],
      "name": "Sell",
      "type": "event"
    },
    {
      "inputs": [
        {
          "internalType": "uint256",
          "name": "_numOfTokens",
          "type": "uint256"
        }
      ],
      "name": "buyToken",
      "outputs": [],
      "stateMutability": "payable",
      "type": "function"
    },
    {
      "inputs": [],
      "name": "endSale",
      "outputs": [],
      "stateMutability": "nonpayable",
      "type": "function"
    },
    {
      "inputs": [],
      "name": "tokenContract",
      "outputs": [
        {
          "internalType": "contract TokenSale",
          "name": "",
          "type": "address"
        }
      ],
      "stateMutability": "view",
      "type": "function"
    },
    {
      "inputs": [],
      "name": "tokenPrice",
      "outputs": [
        {
          "internalType": "uint256",
          "name": "",
          "type": "uint256"
        }
      ],
      "stateMutability": "view",
      "type": "function"
    },
    {
      "inputs": [],
      "name": "tokensSold",
      "outputs": [
        {
          "internalType": "uint256",
          "name": "",
          "type": "uint256"
        }
      ],
      "stateMutability": "view",
      "type": "function"
    }
  ],
  "bytecode": "0x608060405234801561001057600080fd5b50604051610a8f380380610a8f8339818101604052810190610032919061016c565b336000806101000a81548173ffffffffffffffffffffffffffffffffffffffff021916908373ffffffffffffffffffffffffffffffffffffffff16021790555081600160006101000a81548173ffffffffffffffffffffffffffffffffffffffff021916908373ffffffffffffffffffffffffffffffffffffffff1602179055508060028190555050506101ac565b600080fd5b600073ffffffffffffffffffffffffffffffffffffffff82169050919050565b60006100f1826100c6565b9050919050565b6000610103826100e6565b9050919050565b610113816100f8565b811461011e57600080fd5b50565b6000815190506101308161010a565b92915050565b6000819050919050565b61014981610136565b811461015457600080fd5b50565b60008151905061016681610140565b92915050565b60008060408385031215610183576101826100c1565b5b600061019185828601610121565b92505060206101a285828601610157565b9150509250929050565b6108d4806101bb6000396000f3fe60806040526004361061004a5760003560e01c80632d296bf11461004f578063380d831b1461006b578063518ab2a81461008257806355a373d6146100ad5780637ff9b596146100d8575b600080fd5b6100696004803603810190610064919061059c565b610103565b005b34801561007757600080fd5b506100806102d3565b005b34801561008e57600080fd5b506100976104f8565b6040516100a491906105d8565b60405180910390f35b3480156100b957600080fd5b506100c26104fe565b6040516100cf9190610672565b60405180910390f35b3480156100e457600080fd5b506100ed610524565b6040516100fa91906105d8565b60405180910390f35b61010f8160025461052a565b341461011a57600080fd5b80600160009054906101000a900473ffffffffffffffffffffffffffffffffffffffff1673ffffffffffffffffffffffffffffffffffffffff166370a08231306040518263ffffffff1660e01b815260040161017691906106ae565b602060405180830381865afa158015610193573d6000803e3d6000fd5b505050506040513d601f19601f820116820180604052508101906101b791906106de565b10156101c257600080fd5b600160009054906101000a900473ffffffffffffffffffffffffffffffffffffffff1673ffffffffffffffffffffffffffffffffffffffff1663a9059cbb33670de0b6b3a764000084610215919061073a565b6040518363ffffffff1660e01b815260040161023292919061077c565b6020604051808303816000875af1158015610251573d6000803e3d6000fd5b505050506040513d601f19601f8201168201806040525081019061027591906107dd565b61027e57600080fd5b8060036000828254610290919061080a565b925050819055507f5e5e995ce3133561afceaa51a9a154d5db228cd7525d34df5185582c18d3df0933826040516102c892919061077c565b60405180910390a150565b60008054906101000a900473ffffffffffffffffffffffffffffffffffffffff1673ffffffffffffffffffffffffffffffffffffffff163373ffffffffffffffffffffffffffffffffffffffff161461032b57600080fd5b600160009054906101000a900473ffffffffffffffffffffffffffffffffffffffff1673ffffffffffffffffffffffffffffffffffffffff1663a9059cbb60008054906101000a900473ffffffffffffffffffffffffffffffffffffffff16600160009054906101000a900473ffffffffffffffffffffffffffffffffffffffff1673ffffffffffffffffffffffffffffffffffffffff166370a08231306040518263ffffffff1660e01b81526004016103e591906106ae565b602060405180830381865afa158015610402573d6000803e3d6000fd5b505050506040513d601f19601f8201168201806040525081019061042691906106de565b6040518363ffffffff1660e01b815260040161044392919061077c565b6020604051808303816000875af1158015610462573d6000803e3d6000fd5b505050506040513d601f19601f8201168201806040525081019061048691906107dd565b61048f57600080fd5b60008054906101000a900473ffffffffffffffffffffffffffffffffffffffff1673ffffffffffffffffffffffffffffffffffffffff166108fc479081150290604051600060405180830381858888f193505050501580156104f5573d6000803e3d6000fd5b50565b60035481565b600160009054906101000a900473ffffffffffffffffffffffffffffffffffffffff1681565b60025481565b600080821480610552575082828385610543919061073a565b925082610550919061086d565b145b61055b57600080fd5b92915050565b600080fd5b6000819050919050565b61057981610566565b811461058457600080fd5b50565b60008135905061059681610570565b92915050565b6000602082840312156105b2576105b1610561565b5b60006105c084828501610587565b91505092915050565b6105d281610566565b82525050565b60006020820190506105ed60008301846105c9565b92915050565b600073ffffffffffffffffffffffffffffffffffffffff82169050919050565b6000819050919050565b600061063861063361062e846105f3565b610613565b6105f3565b9050919050565b600061064a8261061d565b9050919050565b600061065c8261063f565b9050919050565b61066c81610651565b82525050565b60006020820190506106876000830184610663565b92915050565b6000610698826105f3565b9050919050565b6106a88161068d565b82525050565b60006020820190506106c3600083018461069f565b92915050565b6000815190506106d881610570565b92915050565b6000602082840312156106f4576106f3610561565b5b6000610702848285016106c9565b91505092915050565b7f4e487b7100000000000000000000000000000000000000000000000000000000600052601160045260246000fd5b600061074582610566565b915061075083610566565b925082820261075e81610566565b915082820484148315176107755761077461070b565b5b5092915050565b6000604082019050610791600083018561069f565b61079e60208301846105c9565b9392505050565b60008115159050919050565b6107ba816107a5565b81146107c557600080fd5b50565b6000815190506107d7816107b1565b92915050565b6000602082840312156107f3576107f2610561565b5b6000610801848285016107c8565b91505092915050565b600061081582610566565b915061082083610566565b92508282019050808211156108385761083761070b565b5b92915050565b7f4e487b7100000000000000000000000000000000000000000000000000000000600052601260045260246000fd5b600061087882610566565b915061088383610566565b9250826108935761089261083e565b5b82820490509291505056fea264697066735822122094b3250f8d57f874d189bc6f875f4ac7ce8055d2e9f08497ef930c745bfd263e64736f6c63430008120033",
  "linkReferences": {},
  "deployedLinkReferences": {}
}